{
  "address": "0x7a85fa97CE69C4fD0140Bacf8E419940AEF968ce",
  "abi": [
    {
      "inputs": [
        {
          "internalType": "address",
          "name": "vrfCoordinatorV2",
          "type": "address"
        },
        {
          "internalType": "uint256",
          "name": "entranceFee",
          "type": "uint256"
        },
        {
          "internalType": "bytes32",
          "name": "gasLane",
          "type": "bytes32"
        },
        {
          "internalType": "uint64",
          "name": "subscriptionId",
          "type": "uint64"
        },
        {
          "internalType": "uint32",
          "name": "callbackGasLimit",
          "type": "uint32"
        },
        {
          "internalType": "uint256",
          "name": "interval",
          "type": "uint256"
        }
      ],
      "stateMutability": "nonpayable",
      "type": "constructor"
    },
    {
      "inputs": [
        {
          "internalType": "address",
          "name": "have",
          "type": "address"
        },
        {
          "internalType": "address",
          "name": "want",
          "type": "address"
        }
      ],
      "name": "OnlyCoordinatorCanFulfill",
      "type": "error"
    },
    {
      "inputs": [],
      "name": "Raffle__NotEnoughETHEntered",
      "type": "error"
    },
    {
      "inputs": [],
      "name": "Raffle__NotOpen",
      "type": "error"
    },
    {
      "inputs": [],
      "name": "Raffle__TransferFailed",
      "type": "error"
    },
    {
      "inputs": [
        {
          "internalType": "uint256",
          "name": "currentBalance",
          "type": "uint256"
        },
        {
          "internalType": "uint256",
          "name": "numPlayers",
          "type": "uint256"
        },
        {
          "internalType": "uint256",
          "name": "rafflestate",
          "type": "uint256"
        }
      ],
      "name": "Raffle__UpkeepNotNeeded",
      "type": "error"
    },
    {
      "anonymous": false,
      "inputs": [
        {
          "indexed": true,
          "internalType": "address",
          "name": "player",
          "type": "address"
        }
      ],
      "name": "RaffleEnter",
      "type": "event"
    },
    {
      "anonymous": false,
      "inputs": [
        {
          "indexed": true,
          "internalType": "uint256",
          "name": "requestId",
          "type": "uint256"
        }
      ],
      "name": "RequestedRaffleWinner",
      "type": "event"
    },
    {
      "anonymous": false,
      "inputs": [
        {
          "indexed": true,
          "internalType": "address",
          "name": "winner",
          "type": "address"
        }
      ],
      "name": "WinnerPicked",
      "type": "event"
    },
    {
      "inputs": [
        {
          "internalType": "bytes",
          "name": "",
          "type": "bytes"
        }
      ],
      "name": "checkUpkeep",
      "outputs": [
        {
          "internalType": "bool",
          "name": "upkeepNeeded",
          "type": "bool"
        },
        {
          "internalType": "bytes",
          "name": "",
          "type": "bytes"
        }
      ],
      "stateMutability": "nonpayable",
      "type": "function"
    },
    {
      "inputs": [],
      "name": "enterRaffle",
      "outputs": [],
      "stateMutability": "payable",
      "type": "function"
    },
    {
      "inputs": [],
      "name": "getBlockTimestamp",
      "outputs": [
        {
          "internalType": "uint256",
          "name": "",
          "type": "uint256"
        }
      ],
      "stateMutability": "view",
      "type": "function"
    },
    {
      "inputs": [],
      "name": "getEntranceFee",
      "outputs": [
        {
          "internalType": "uint256",
          "name": "",
          "type": "uint256"
        }
      ],
      "stateMutability": "view",
      "type": "function"
    },
    {
      "inputs": [],
      "name": "getInterval",
      "outputs": [
        {
          "internalType": "uint256",
          "name": "",
          "type": "uint256"
        }
      ],
      "stateMutability": "view",
      "type": "function"
    },
    {
      "inputs": [],
      "name": "getIsReadyForUpkeep",
      "outputs": [
        {
          "internalType": "bool",
          "name": "",
          "type": "bool"
        }
      ],
      "stateMutability": "view",
      "type": "function"
    },
    {
      "inputs": [],
      "name": "getLatestTimeStamp",
      "outputs": [
        {
          "internalType": "uint256",
          "name": "",
          "type": "uint256"
        }
      ],
      "stateMutability": "view",
      "type": "function"
    },
    {
      "inputs": [],
      "name": "getNumWords",
      "outputs": [
        {
          "internalType": "uint256",
          "name": "",
          "type": "uint256"
        }
      ],
      "stateMutability": "pure",
      "type": "function"
    },
    {
      "inputs": [],
      "name": "getNumberOfPlayers",
      "outputs": [
        {
          "internalType": "uint256",
          "name": "",
          "type": "uint256"
        }
      ],
      "stateMutability": "view",
      "type": "function"
    },
    {
      "inputs": [
        {
          "internalType": "uint256",
          "name": "index",
          "type": "uint256"
        }
      ],
      "name": "getPlayer",
      "outputs": [
        {
          "internalType": "address",
          "name": "",
          "type": "address"
        }
      ],
      "stateMutability": "view",
      "type": "function"
    },
    {
      "inputs": [],
      "name": "getRaffleState",
      "outputs": [
        {
          "internalType": "enum Raffle.RaffleState",
          "name": "",
          "type": "uint8"
        }
      ],
      "stateMutability": "view",
      "type": "function"
    },
    {
      "inputs": [],
      "name": "getRecentWinner",
      "outputs": [
        {
          "internalType": "address",
          "name": "",
          "type": "address"
        }
      ],
      "stateMutability": "view",
      "type": "function"
    },
    {
      "inputs": [],
      "name": "getRequestConfirmations",
      "outputs": [
        {
          "internalType": "uint256",
          "name": "",
          "type": "uint256"
        }
      ],
      "stateMutability": "pure",
      "type": "function"
    },
    {
      "inputs": [],
      "name": "getSubscriptionId",
      "outputs": [
        {
          "internalType": "uint256",
          "name": "",
          "type": "uint256"
        }
      ],
      "stateMutability": "view",
      "type": "function"
    },
    {
      "inputs": [
        {
          "internalType": "bytes",
          "name": "",
          "type": "bytes"
        }
      ],
      "name": "performUpkeep",
      "outputs": [],
      "stateMutability": "nonpayable",
      "type": "function"
    },
    {
      "inputs": [
        {
          "internalType": "uint256",
          "name": "requestId",
          "type": "uint256"
        },
        {
          "internalType": "uint256[]",
          "name": "randomWords",
          "type": "uint256[]"
        }
      ],
      "name": "rawFulfillRandomWords",
      "outputs": [],
      "stateMutability": "nonpayable",
      "type": "function"
    }
  ],
  "transactionHash": "0xb124f8e6a027227333d3649beff72dc4338ecbf51f5238621abc5855c527eb41",
  "args": [
    "0x2Ca8E0C643bDe4C2E08ab1fA0da3401AdAD7734D",
    "10000000000000000",
    "0x79d3d8832d904592c0bf9818b621522c988bb8b0c05cdc3b15aea1b6e8db0c15",
    "12036",
    "5000000",
    "30"
  ],
  "numDeployments": 1,
  "solcInputHash": "cdfa1f89ca94043c48a11b9e20bee46b",
  "bytecode": "0x6101606040523480156200001257600080fd5b5060405162001a3638038062001a368339818101604052810190620000389190620001ad565b858073ffffffffffffffffffffffffffffffffffffffff1660808173ffffffffffffffffffffffffffffffffffffffff1660601b81525050508460a081815250508573ffffffffffffffffffffffffffffffffffffffff1660c08173ffffffffffffffffffffffffffffffffffffffff1660601b815250508360e081815250508267ffffffffffffffff166101008167ffffffffffffffff1660c01b815250508163ffffffff166101208163ffffffff1660e01b815250506000600160146101000a81548160ff02191690836001811115620001195762000118620002b5565b5b0217905550426002819055508061014081815250505050505050506200036b565b6000815190506200014b81620002e9565b92915050565b600081519050620001628162000303565b92915050565b60008151905062000179816200031d565b92915050565b600081519050620001908162000337565b92915050565b600081519050620001a78162000351565b92915050565b60008060008060008060c08789031215620001cd57620001cc620002e4565b5b6000620001dd89828a016200013a565b9650506020620001f089828a0162000168565b95505060406200020389828a0162000151565b94505060606200021689828a0162000196565b93505060806200022989828a016200017f565b92505060a06200023c89828a0162000168565b9150509295509295509295565b6000620002568262000267565b9050919050565b6000819050919050565b600073ffffffffffffffffffffffffffffffffffffffff82169050919050565b6000819050919050565b600063ffffffff82169050919050565b600067ffffffffffffffff82169050919050565b7f4e487b7100000000000000000000000000000000000000000000000000000000600052602160045260246000fd5b600080fd5b620002f48162000249565b81146200030057600080fd5b50565b6200030e816200025d565b81146200031a57600080fd5b50565b620003288162000287565b81146200033457600080fd5b50565b620003428162000291565b81146200034e57600080fd5b50565b6200035c81620002a1565b81146200036857600080fd5b50565b60805160601c60a05160c05160601c60e0516101005160c01c6101205160e01c61014051611641620003f5600039600081816103e8015281816109550152610a06015260006108050152600081816107e20152610a2e015260006107c10152600061078501526000818161045a015261055701526000818161049701526104eb01526116416000f3fe6080604052600436106100f35760003560e01c806353a2c19a1161008a57806391ad27b41161005957806391ad27b4146102ea578063de3d9fb714610315578063e55ae4e814610340578063fd6673f51461037d576100f3565b806353a2c19a1461022b5780635f1b0fd8146102565780636e04ff0d14610281578063796b89b9146102bf576100f3565b80632cfcc539116100c65780632cfcc539146101a2578063320229eb146101ac5780634585e33b146101d7578063473f1ddc14610200576100f3565b80630964024e146100f857806309bc33a714610123578063115cbaf51461014e5780631fe543e314610179575b600080fd5b34801561010457600080fd5b5061010d6103a8565b60405161011a919061118e565b60405180910390f35b34801561012f57600080fd5b50610138610456565b6040516101459190611247565b60405180910390f35b34801561015a57600080fd5b5061016361047e565b604051610170919061122c565b60405180910390f35b34801561018557600080fd5b506101a0600480360381019061019b9190611005565b610495565b005b6101aa610555565b005b3480156101b857600080fd5b506101c16106c4565b6040516101ce9190611247565b60405180910390f35b3480156101e357600080fd5b506101fe60048036038101906101f99190610f15565b6106ce565b005b34801561020c57600080fd5b506102156108cd565b604051610222919061114a565b60405180910390f35b34801561023757600080fd5b506102406108f7565b60405161024d9190611247565b60405180910390f35b34801561026257600080fd5b5061026b610906565b6040516102789190611247565b60405180910390f35b34801561028d57600080fd5b506102a860048036038101906102a39190610f62565b610913565b6040516102b69291906111a9565b60405180910390f35b3480156102cb57600080fd5b506102d46109fa565b6040516102e19190611247565b60405180910390f35b3480156102f657600080fd5b506102ff610a02565b60405161030c9190611247565b60405180910390f35b34801561032157600080fd5b5061032a610a2a565b6040516103379190611247565b60405180910390f35b34801561034c57600080fd5b5061036760048036038101906103629190610fab565b610a5c565b604051610374919061114a565b60405180910390f35b34801561038957600080fd5b50610392610aa3565b60405161039f9190611247565b60405180910390f35b600080600060018111156103bf576103be611521565b5b600160149054906101000a900460ff1660018111156103e1576103e0611521565b5b14905060007f0000000000000000000000000000000000000000000000000000000000000000600254426104159190611342565b1190506000806000805490501190506000804711905060008480156104375750835b80156104405750825b80156104495750815b9050809550505050505090565b60007f0000000000000000000000000000000000000000000000000000000000000000905090565b6000600160149054906101000a900460ff16905090565b7f000000000000000000000000000000000000000000000000000000000000000073ffffffffffffffffffffffffffffffffffffffff163373ffffffffffffffffffffffffffffffffffffffff161461054757337f00000000000000000000000000000000000000000000000000000000000000006040517f1cf993f400000000000000000000000000000000000000000000000000000000815260040161053e929190611165565b60405180910390fd5b6105518282610aaf565b5050565b7f00000000000000000000000000000000000000000000000000000000000000003410156105af576040517fbd4e069500000000000000000000000000000000000000000000000000000000815260040160405180910390fd5b600060018111156105c3576105c2611521565b5b600160149054906101000a900460ff1660018111156105e5576105e4611521565b5b1461061c576040517f1425571c00000000000000000000000000000000000000000000000000000000815260040160405180910390fd5b6000339080600181540180825580915050600190039060005260206000200160009091909190916101000a81548173ffffffffffffffffffffffffffffffffffffffff021916908373ffffffffffffffffffffffffffffffffffffffff1602179055503373ffffffffffffffffffffffffffffffffffffffff167f0805e1d667bddb8a95f0f09880cf94f403fb596ce79928d9f29b74203ba284d460405160405180910390a2565b6000600254905090565b60006106e860405180602001604052806000815250610913565b509050806107575747600080549050600160149054906101000a900460ff16600181111561071957610718611521565b5b6040517f584327aa00000000000000000000000000000000000000000000000000000000815260040161074e93929190611262565b60405180910390fd5b60018060146101000a81548160ff0219169083600181111561077c5761077b611521565b5b021790555060007f000000000000000000000000000000000000000000000000000000000000000073ffffffffffffffffffffffffffffffffffffffff16635d3b1d307f00000000000000000000000000000000000000000000000000000000000000007f000000000000000000000000000000000000000000000000000000000000000060037f000000000000000000000000000000000000000000000000000000000000000060016040518663ffffffff1660e01b81526004016108469594939291906111d9565b602060405180830381600087803b15801561086057600080fd5b505af1158015610874573d6000803e3d6000fd5b505050506040513d601f19601f820116820180604052508101906108989190610fd8565b9050807fcd6e45c8998311cab7e9d4385596cac867e20a0587194b954fa3a731c93ce78b60405160405180910390a250505050565b6000600160009054906101000a900473ffffffffffffffffffffffffffffffffffffffff16905090565b6000600163ffffffff16905090565b6000600361ffff16905090565b60006060600080600181111561092c5761092b611521565b5b600160149054906101000a900460ff16600181111561094e5761094d611521565b5b14905060007f0000000000000000000000000000000000000000000000000000000000000000600254426109829190611342565b119050600080600080549050119050600080471190508380156109a25750825b80156109ab5750815b80156109b45750805b9550856040518060400160405280600381526020017f30783000000000000000000000000000000000000000000000000000000000008152509550955050505050915091565b600042905090565b60007f0000000000000000000000000000000000000000000000000000000000000000905090565b60007f000000000000000000000000000000000000000000000000000000000000000067ffffffffffffffff16905090565b6000808281548110610a7157610a70611550565b5b9060005260206000200160009054906101000a900473ffffffffffffffffffffffffffffffffffffffff169050919050565b60008080549050905090565b6000808054905082600081518110610aca57610ac9611550565b5b6020026020010151610adc9190611492565b90506000808281548110610af357610af2611550565b5b9060005260206000200160009054906101000a900473ffffffffffffffffffffffffffffffffffffffff16905080600160006101000a81548173ffffffffffffffffffffffffffffffffffffffff021916908373ffffffffffffffffffffffffffffffffffffffff1602179055506000600160146101000a81548160ff02191690836001811115610b8757610b86611521565b5b0217905550600067ffffffffffffffff811115610ba757610ba661157f565b5b604051908082528060200260200182016040528015610bd55781602001602082028036833780820191505090505b5060009080519060200190610beb929190610ce0565b504260028190555060008173ffffffffffffffffffffffffffffffffffffffff1647604051610c1990611135565b60006040518083038185875af1925050503d8060008114610c56576040519150601f19603f3d011682016040523d82523d6000602084013e610c5b565b606091505b5050905080610c96576040517fa1d04b3900000000000000000000000000000000000000000000000000000000815260040160405180910390fd5b8173ffffffffffffffffffffffffffffffffffffffff167f5b690ec4a06fe979403046eaeea5b3ce38524683c3001f662c8b5a829632f7df60405160405180910390a25050505050565b828054828255906000526020600020908101928215610d59579160200282015b82811115610d585782518260006101000a81548173ffffffffffffffffffffffffffffffffffffffff021916908373ffffffffffffffffffffffffffffffffffffffff16021790555091602001919060010190610d00565b5b509050610d669190610d6a565b5090565b5b80821115610d83576000816000905550600101610d6b565b5090565b6000610d9a610d95846112be565b611299565b90508083825260208201905082856020860282011115610dbd57610dbc6115b8565b5b60005b85811015610ded5781610dd38882610eeb565b845260208401935060208301925050600181019050610dc0565b5050509392505050565b6000610e0a610e05846112ea565b611299565b905082815260208101848484011115610e2657610e256115bd565b5b610e3184828561141f565b509392505050565b600082601f830112610e4e57610e4d6115b3565b5b8135610e5e848260208601610d87565b91505092915050565b60008083601f840112610e7d57610e7c6115b3565b5b8235905067ffffffffffffffff811115610e9a57610e996115ae565b5b602083019150836001820283011115610eb657610eb56115b8565b5b9250929050565b600082601f830112610ed257610ed16115b3565b5b8135610ee2848260208601610df7565b91505092915050565b600081359050610efa816115f4565b92915050565b600081519050610f0f816115f4565b92915050565b60008060208385031215610f2c57610f2b6115c7565b5b600083013567ffffffffffffffff811115610f4a57610f496115c2565b5b610f5685828601610e67565b92509250509250929050565b600060208284031215610f7857610f776115c7565b5b600082013567ffffffffffffffff811115610f9657610f956115c2565b5b610fa284828501610ebd565b91505092915050565b600060208284031215610fc157610fc06115c7565b5b6000610fcf84828501610eeb565b91505092915050565b600060208284031215610fee57610fed6115c7565b5b6000610ffc84828501610f00565b91505092915050565b6000806040838503121561101c5761101b6115c7565b5b600061102a85828601610eeb565b925050602083013567ffffffffffffffff81111561104b5761104a6115c2565b5b61105785828601610e39565b9150509250929050565b61106a81611376565b82525050565b61107981611388565b82525050565b61108881611394565b82525050565b60006110998261131b565b6110a38185611326565b93506110b381856020860161142e565b6110bc816115cc565b840191505092915050565b6110d08161140d565b82525050565b60006110e3600083611337565b91506110ee826115dd565b600082019050919050565b611102816113b1565b82525050565b611111816113df565b82525050565b611120816113e9565b82525050565b61112f816113f9565b82525050565b6000611140826110d6565b9150819050919050565b600060208201905061115f6000830184611061565b92915050565b600060408201905061117a6000830185611061565b6111876020830184611061565b9392505050565b60006020820190506111a36000830184611070565b92915050565b60006040820190506111be6000830185611070565b81810360208301526111d0818461108e565b90509392505050565b600060a0820190506111ee600083018861107f565b6111fb6020830187611126565b61120860408301866110f9565b6112156060830185611117565b6112226080830184611117565b9695505050505050565b600060208201905061124160008301846110c7565b92915050565b600060208201905061125c6000830184611108565b92915050565b60006060820190506112776000830186611108565b6112846020830185611108565b6112916040830184611108565b949350505050565b60006112a36112b4565b90506112af8282611461565b919050565b6000604051905090565b600067ffffffffffffffff8211156112d9576112d861157f565b5b602082029050602081019050919050565b600067ffffffffffffffff8211156113055761130461157f565b5b61130e826115cc565b9050602081019050919050565b600081519050919050565b600082825260208201905092915050565b600081905092915050565b600061134d826113df565b9150611358836113df565b92508282101561136b5761136a6114c3565b5b828203905092915050565b6000611381826113bf565b9050919050565b60008115159050919050565b6000819050919050565b60008190506113ac826115e0565b919050565b600061ffff82169050919050565b600073ffffffffffffffffffffffffffffffffffffffff82169050919050565b6000819050919050565b600063ffffffff82169050919050565b600067ffffffffffffffff82169050919050565b60006114188261139e565b9050919050565b82818337600083830152505050565b60005b8381101561144c578082015181840152602081019050611431565b8381111561145b576000848401525b50505050565b61146a826115cc565b810181811067ffffffffffffffff821117156114895761148861157f565b5b80604052505050565b600061149d826113df565b91506114a8836113df565b9250826114b8576114b76114f2565b5b828206905092915050565b7f4e487b7100000000000000000000000000000000000000000000000000000000600052601160045260246000fd5b7f4e487b7100000000000000000000000000000000000000000000000000000000600052601260045260246000fd5b7f4e487b7100000000000000000000000000000000000000000000000000000000600052602160045260246000fd5b7f4e487b7100000000000000000000000000000000000000000000000000000000600052603260045260246000fd5b7f4e487b7100000000000000000000000000000000000000000000000000000000600052604160045260246000fd5b600080fd5b600080fd5b600080fd5b600080fd5b600080fd5b600080fd5b6000601f19601f8301169050919050565b50565b600281106115f1576115f0611521565b5b50565b6115fd816113df565b811461160857600080fd5b5056fea26469706673582212206896ae3ccc88e94c8f4f024d21f72cc2daab64a5d0d9465106057c84ab4a4ade64736f6c63430008070033",
  "devdoc": {
    "author": "Julian Cabrera",
    "details": "This implements Chainlink VRF V2 and Chainlink Keepers",
    "kind": "dev",
    "methods": {
      "checkUpkeep(bytes)": {
        "details": "this is the function that the Chainlink keeper nodes call they look for the \"upKeeperNeeded\" to return true 1. Check if the Raffle state is open 2. Check if the time interval was reached 3. Check if are at least one player available 4. Check if the contract have some Balance"
      }
    },
    "title": "A Sample Raffle Contract",
    "version": 1
  },
  "userdoc": {
    "kind": "user",
    "methods": {},
    "notice": "This contract is for creating an untamperable decentralized smart contract",
    "version": 1
  },
  "storageLayout": {
    "storage": [
      {
        "astId": 1166,
        "contract": "contracts/Raffle.sol:Raffle",
        "label": "s_players",
        "offset": 0,
        "slot": "0",
        "type": "t_array(t_address_payable)dyn_storage"
      },
      {
        "astId": 1183,
        "contract": "contracts/Raffle.sol:Raffle",
        "label": "s_recentWinner",
        "offset": 0,
        "slot": "1",
        "type": "t_address"
      },
      {
        "astId": 1186,
        "contract": "contracts/Raffle.sol:Raffle",
        "label": "s_raffleState",
        "offset": 20,
        "slot": "1",
        "type": "t_enum(RaffleState)1161"
      },
      {
        "astId": 1188,
        "contract": "contracts/Raffle.sol:Raffle",
        "label": "s_lastTimeStamp",
        "offset": 0,
        "slot": "2",
        "type": "t_uint256"
      }
    ],
    "types": {
      "t_address": {
        "encoding": "inplace",
        "label": "address",
        "numberOfBytes": "20"
      },
      "t_address_payable": {
        "encoding": "inplace",
        "label": "address payable",
        "numberOfBytes": "20"
      },
      "t_array(t_address_payable)dyn_storage": {
        "base": "t_address_payable",
        "encoding": "dynamic_array",
        "label": "address payable[]",
        "numberOfBytes": "32"
      },
      "t_enum(RaffleState)1161": {
        "encoding": "inplace",
        "label": "enum Raffle.RaffleState",
        "numberOfBytes": "1"
      },
      "t_uint256": {
        "encoding": "inplace",
        "label": "uint256",
        "numberOfBytes": "32"
      }
    }
  }
}